:020000040800F2
:1000000000780020410B00080D0300080F030008D2
:1000100000000000000000000000000000000000E0
:1000200000000000000000000000000011030008B4
:100030000000000000000000130300081503000882
:10004000910B000800000000910B0008910B0008C4
:10005000910B0008910B0008910B0008910B000810
:1000600000000000910B0008910B0008910B0008A4
:10007000910B0008910B0008910B0008910B0008F0
:10008000910B00080000000000000000910B000828
:10009000910B0008910B0008910B0008910B0008D0
:1000A000910B0008910B0008910B0008910B0008C0
:1000B000910B0008910B0008910B0008910B0008B0
:1000C00010B5064C2378002B07D1054B002B02D02E
:1000D000044800E000BF0123237010BD0C00002085
:1000E00000000000EC0B0008044B10B5002B03D0FF
:1000F0000349044800E000BF10BDC04600000000F6
:1001000010000020EC0B0008002243088B4274D33F
:1001100003098B425FD3030A8B4244D3030B8B4208
:1001200028D3030C8B420DD3FF22090212BA030C11
:100130008B4202D31212090265D0030B8B4219D3F2
:1001400000E0090AC30B8B4201D3CB03C01A524112
:10015000830B8B4201D38B03C01A5241430B8B425A
:1001600001D34B03C01A5241030B8B4201D30B0343
:10017000C01A5241C30A8B4201D3CB02C01A52416A
:10018000830A8B4201D38B02C01A5241430A8B422D
:1001900001D34B02C01A5241030A8B4201D30B0216
:1001A000C01A5241CDD2C3098B4201D3CB01C01A30
:1001B000524183098B4201D38B01C01A524143093A
:1001C0008B4201D34B01C01A524103098B4201D328
:1001D0000B01C01A5241C3088B4201D3CB00C01A95
:1001E000524183088B4201D38B00C01A524143080D
:1001F0008B4201D34B00C01A5241411A00D2014632
:10020000524110467047FFE701B5002000F006F8A4
:1002100002BDC0460029F7D076E770477047C04658
:1002200072B6FEE700B58DB01C22002105A800F0D3
:10023000D5FC14220021684600F0D0FC134A136854
:1002400007218B4306390B43136002230593FE33CA
:1002500008930023099340330A9305A800F01EF980
:1002600000280ED1072300930023019302930393E8
:1002700004930121684600F0A7FA002803D10DB0CD
:1002800000BDFFF7CDFFFFF7CBFFC04600200240C7
:1002900010B500F087F8FFF7C5FF00F00BF8A020BD
:1002A0002021C00500F03CFCFA20800000F098F806
:1002B000F5E7000070B588B01422002103A800F013
:1002C0008DFC114B5A6B20252A435A635A6B2A40E6
:1002D0000192019A5A6B012422435A635B6B2340BB
:1002E0000293029BA026F60500222021300000F098
:1002F00011FC0395049400230593069303A9300091
:1003000000F02AFB08B070BD00100240FEE7FEE7D7
:100310007047704710B500F051F810BD82B00A4B1D
:10032000196C012211431964196C0A400092009A59
:10033000DA6B802149050A43DA63DB6B0B400193DA
:10034000019B02B07047C0460010024010B5040087
:10035000114B1978002901D1012010BDFA2080002D
:10036000FFF7D2FE01000D4B1868FFF7CDFE00F03D
:1003700079F800280DD1032C01D90120EDE70130D7
:1003800000222100404200F03DF8054B1C60002097
:10039000E3E70120E1E7C04600000020080000205C
:1003A0000400002010B50320FFF7D0FF041E02D088
:1003B0000124200010BDFFF7B1FFFAE7034B1B78C3
:1003C000034A11685B1813607047C04600000020A4
:1003D00028000020014B18687047C0462800002004
:1003E00070B50400FFF7F6FF0500631C02D0044B54
:1003F0001B78E418FFF7EEFF401BA042FAD370BD54
:100400000000002070B5002811DB8308134EC033B4
:100410009B009D5903242040C000FF22140084400B
:10042000A54389010A4082402A439A5170BD0F2397
:100430000340083B9B0806339B00094A94466344EB
:100440005C6803221040C000FC3215008540AC43BC
:1004500089010A40824022435A60E7E700E100E058
:1004600000ED00E0013880235B0498420FD2094A76
:1004700050600948036A1B021B0AC02109060B438E
:10048000036200239360073313600020704701204C
:10049000FCE7C04610E000E000ED00E070B5041E8F
:1004A00000D139E10368DB072CD5A14B9A683823CA
:1004B0001340082B22D043688022520293422ED050
:1004C000A022D202934231D0994B1A6899490A402E
:1004D0001A601A6898490A401A606368002B31D084
:1004E000FFF778FF0500924B1B689B030AD4FFF7C8
:1004F00071FF401B6428F6D903200EE14368002BEE
:1005000000D10BE123689B0747D5894B9B683822B4
:100510001A4261D1E368002B22D10120FDE0844A18
:10052000116880235B020B431360D6E7804B196888
:100530008022D2020A431A601968802252020A43BA
:100540001A60CAE7FFF746FF0500794B1B689B035B
:10055000D8D5FFF73FFF401B6428F6D90320DCE025
:10056000734B5A6875490A40616909020A435A6027
:100570001A6873490A4021690A431A601B68DB0A3A
:1005800007221A406F4BD3406F4A13606F4B1868B5
:10059000FFF7DCFE002800D0C2E023681B0757D518
:1005A000634B9A6838231340182B4ED0A369002B55
:1005B00077D05F4A136E01210B431366FFF70AFFE2
:1005C00005005B4B1B6E9B0742D4FFF703FF401BEC
:1005D0000228F6D90320A0E0E368002B22D0544A79
:1005E000136857490B4021690B431360116880233E
:1005F0005B000B431360FFF7EDFE05004C4B1B68DF
:100600005B0506D4FFF7E6FE401B0228F6D903205F
:1006100083E047494B68494A134062691202134319
:100620004B60BAE7424A136849490B401360FFF731
:10063000D1FE05003E4B1B685B05AED5FFF7CAFE39
:10064000401B0228F6D9032067E0A369002B69D07C
:1006500023685B0768D5364B9A6838231340202BF4
:1006600032D0A368012B34D0052B38D0304BDA6D53
:1006700001218A43DA65DA6D03318A43DA65A368BA
:10068000002B38D0FFF7A6FE0400294BDB6D9B073B
:100690002FD4FFF79FFE001B2E4B9842F5D9032065
:1006A0003BE0234A136E01218B431366FFF792FE52
:1006B00005001F4B1B6E9B07CAD5FFF78BFE401B27
:1006C0000228F6D9032028E0A368002B2ED00020B2
:1006D00023E0174AD36D01210B43D365CFE7144BB9
:1006E000DA6D04210A43DA65DA6D03390A43DA6503
:1006F000C5E7002011E0FFF76DFE04000C4BDB6D39
:100700009B0707D5FFF766FE001B124B9842F5D9F1
:10071000032002E0002000E0012070BD0120FCE782
:100720000120FAE70120F8E70020F6E70120F4E7CE
:1007300000100240FFFFFEFFFFFFFBFFFF80FFFFF7
:10074000FFC7FFFF006CDC0208000020040000204F
:10075000FFFEFFFF8813000010B5184A13689B08BE
:10076000072119400131936838221A4209D1134BED
:100770001A68D20A072313401148D840FFF7C4FC77
:1007800010BD0E4B9A6838231340082B10D00B4B2A
:100790009A6838231340202B0CD0084B9A683823D2
:1007A0001340182B01D00020E8E7FA20C001E5E74C
:1007B0000448E3E780200002E0E7C0460010024062
:1007C000006CDC0200127A0070B504000D000028F5
:1007D00000D1AAE0574B1A68072313408B4228D355
:1007E00023689A0710D55B0707D553498B68534A8E
:1007F0001A40B0231B0113438B604F4A9368504942
:100800000B40E1680B4393602368DB0752D54A4AEB
:1008100013681C218B43A1680B4313606368012B91
:100820001ED0002B38D1444A126852051BD4012037
:1008300063E0404A136807218B432B431360FFF7A3
:10084000C9FD06003B4B1A6807231340AB42C7D0D3
:10085000FFF7C0FD801B3B4A9042F3D903204CE0D8
:100860001268920363D534498A6807208243134390
:100870008B60FFF7AFFD06002F4B9B6838221A40B4
:100880006368DB009A4215D0FFF7A4FD801B2D4B57
:100890009842F1D9032030E0032B05D0264AD26DCF
:1008A0009207E0D4012028E0234A126E9207DAD49E
:1008B000012022E01F4B1A6807231340AB421DD8CA
:1008C00023685B0706D51C4A93681F490B402169C2
:1008D0000B439360FFF740FF174B9A68120A0F23F0
:1008E00013409B00194A9A581F231340D840184BB5
:1008F0001860184B1868FFF729FD70BD0D4A136882
:1009000007218B432B431360FFF764FD0600094B5F
:100910001A6807231340AB42D2D0FFF75BFD801B60
:10092000084B9842F3D90320E7E70120E5E70120CF
:10093000E3E7C0460020024000100240FF84FFFFB2
:10094000FFF0FFFF88130000FF8FFFFF040C00087B
:100950000800002004000020F0B5D6464F46464669
:10096000C0B500233BE0052500E00025A5402C0094
:100970003C43634D1832920054518022AC584A4691
:10098000D24325004E46B5434E68F60302D54D4688
:100990002C4325005A4C8027E551842564592500B5
:1009A00015404E68B60302D54D462C432500544CE5
:1009B0008427E5512468250015404E68F60202D5CB
:1009C0004D462C4325004E4C2560646822404D68FE
:1009D000AD0201D54A462243494C626001330C689E
:1009E0002200DA4000D186E001229A40260016401B
:1009F000B1461442F2D04C68022C01D0122C18D10E
:100A0000DD080835AD002C58A44607271F40BF005D
:100A10000F24A2462600BE40B04666464446A64382
:100A2000B4460C69564626403400BC406646344302
:100A30002C500468A4465D000324A2462700AF4062
:100A4000B846FF4366464446A643B4464C685646FD
:100A500026403400AC406646344304604C68661E51
:100A6000012E03D9112C01D0122C12D184683C40E4
:100A7000A446CC68AC4066463443846044689443E2
:100A80004A68120994460122664632409A4022433F
:100A900042604A68032A05D0C2683A408F68AF4076
:100AA0001743C7604A68D20098D59A0814001834D2
:100AB000A400134D675903251D40EC000F25A540E8
:100AC000AF43A025ED05A84200D14EE70D4DA84249
:100AD0000BD00D4DA8420AD00C4DA84209D00C4DA8
:100AE000A84200D13FE7062540E701253EE7022561
:100AF0003CE703253AE7E0BCBA46B146A846F0BD5C
:100B0000001802400004005000080050000C005083
:100B100000140050002A01D0816170478162FCE717
:100B2000426913000B401B049143194381617047D4
:100B3000024B802212059A607047C04600ED00E02B
:100B40000D488546FFF7F4FF002103E00B4B5B588F
:100B5000435004310A480B4B42189A42F6D30A4AD2
:100B600002E0002313600432084B9A42F9D300F0EC
:100B700011F8FFF78DFBFEE7007800204C0C000811
:100B8000000000200C0000200C0000202C000020A1
:100B9000FEE7000070B500260C4D0D4C641BA41040
:100BA000A64209D1002600F021F80A4D0A4C641B28
:100BB000A410A64205D170BDB300EB58984701368A
:100BC000EEE7B300EB5898470136F2E7440C000813
:100BD000440C0008440C0008480C0008030082186C
:100BE000934200D1704719700133F9E7F8B5C04658
:100BF000F8BC08BC9E467047F8B5C046F8BC08BCB7
:040C00009E46704755
:100C040000000000000000000000000000000000E0
:100C140000000000000000000000000000000000D0
:100C240001000000020000000300000004000000B6
:100C34000600000007000000080000000900000092
:040C4400E9000008BB
:040C4800C1000008DF
:0C0C4C000100000004000000001BB700C5
:0400000508000B41A3
:00000001FF
